:020000040800F2
:1000000030CF0120C5020008753C0008BF3A000847
:10001000733C000839150008D149000800000000B1
:10002000000000000000000000000000654600081D
:100030005316000800000000773C000867460008DF
:10004000E9020008E9020008E9020008E9020008E4
:10005000E9020008E9020008E9020008E9020008D4
:10006000E9020008E9020008E9020008E9020008C4
:10007000E9020008E9020008E90200083D1500084D
:10008000E9020008E9020008E9020008E9020008A4
:10009000E9020008E9020008E9020008E902000894
:1000A000E9020008E9020008E9020008E902000884
:1000B000E9020008E90200087D460008E90200089C
:1000C000E9020008E9020008E9020008E902000864
:1000D000E9020008C5490008E9020008E902000831
:1000E000E9020008E9020008E9020008E902000844
:1000F000E9020008E9020008E9020008E902000834
:10010000E9020008E9020008E9020008E902000823
:10011000E9020008E9020008B1460008BD460008EF
:10012000E9020008E9020008E9020008E902000803
:10013000E9020008E9020008E9020008E9020008F3
:10014000E9020008E9020008E9020008E9020008E3
:10015000E9020008E9020008E9020008E9020008D3
:10016000E9020008E9020008E9020008E9020008C3
:10017000E9020008E9020008E902000800000000A6
:10018000E9020008E902000800F002F800F08AF82D
:100190000AA090E8000C82448344AAF10107DA45E2
:1001A00001D100F07FF8AFF2090EBAE80F0013F0AA
:1001B000010F18BFFB1A43F001031847081902008A
:1001C000281902000A444FF0000C10F8013B13F00C
:1001D000070408BF10F8014B1D1108BF10F8015BA0
:1001E000641E05D010F8016B641E01F8016BF9D193
:1001F00013F0080F1EBF10F8014BAD1C0C1B09D1EA
:100200006D1E58BF01F801CBFAD505E014F8016B5B
:1002100001F8016B6D1EF9D59142D6D370470000ED
:100220000023002400250026103A28BF78C1FBD8FF
:10023000520728BF30C148BF0B6070476E2900F0DD
:100240009D81702900F06882692900F05B81642932
:1002500000F05881752900F055816F2900F0008267
:10026000782900F04C820368DB0928BF41F0800147
:10027000632900F0C086732900F0C586E32900F0E9
:10028000E386002070471FB51BF0FAFE01F042F92B
:100290000400002000211BF06DFD401C60601FBDAC
:1002A00010B510BD01F010F91146FFF7ECFF16F084
:1002B0000DF901F033F903B4FFF7F2FF03BC04F0CA
:1002C0009FFB00000C48016841F4700101600B487D
:1002D00080470B480047FEE7FEE7FEE7FEE7FEE744
:1002E000FEE7FEE7FEE7FEE7FEE7000005480649F9
:1002F000044A064B7047000088ED00E06D46000898
:100300008901000830C7012030CF012030C701200B
:10031000704753EA020C00F069802DE9F04B4FF072
:100320000006002B1FBFB3FA83F503FA05F424FA85
:1003300005F65E4012BF1643B2FA82F502FA05F4E2
:10034000C5F120051EBF22FA05FC44EA0C04203545
:1003500056EA044C4FEA144418BF641C4FF00008DE
:100360004FF00009904271EB030C39D3002919BFFB
:10037000B1FA81F701FA07F6B0FA80F700FA07F64A
:10038000C7F120071EBF20FA07FC46EA0C062037FB
:10039000B6FBF4FCA7EB0507103F07F01F0BCBF1F2
:1003A00020060CFA0BFB2CFA06F644BFB3460026D7
:1003B000202FA4BF5E464FF0000B5BEA060C08BF7F
:1003C0004FF0010B19EB0B09ABFB027C48EB060865
:1003D000C01B06FB02CC0BFB03CC71EB0C01C1E78D
:1003E0000B46024641464846BDE8F08B13B54FF038
:1003F00000004FF00001AFF30080BDE81C407047E3
:100400000FB4044910B503AA029800F001FE10BC15
:100410005DF814FB140000200FB41CB5074B06AAAE
:100420007B4469460090059800F0C3FD00206946B2
:1004300000F0D2FD1CBC5DF814FB0000B50B000001
:1004400070B5044685690068C10601D5302600E014
:100450002026C00707D070BDD4E90121304690475F
:10046000206A401C20626D1EF6D570BD70B5044632
:1004700085690078C00707D170BDD4E9012120202B
:100480009047206A401C20626D1EF6D570BD096839
:100490004A0501D540B27047C905FCD500B2704786
:1004A00009684A0501D5C0B27047C905FCD580B2BC
:1004B000704770B50C460546012A05D0287880069D
:1004C00000D5EA69002302E0012305E05B1C9342AA
:1004D00002D2E05C0028F9D1A869E618C01AA86128
:1004E000286A184428622846FFF7AAFF04E0D5E9E5
:1004F000012114F8010B9047B442F8D32846FFF7C6
:10050000B5FF70BD2DE9F04106460024106875293D
:10051000314616A510D0FFF7BAFF002802DA404294
:1005200013A507E031688A0701D512A502E0490743
:1005300004D511A5012401E0FFF7B2FF00210A2232
:1005400006F1240709E0B0FBF2FCB0FBF2F302FB7A
:100550001C00303078541846491C0028F3D123463B
:100560002A463046BDE8F04100F0C5BC000000005E
:100570002D0000002B000000200000001168026820
:10058000006A530501D508700AE0D30501D508803B
:1005900006E0130603D5C217C1E9000200E00860B7
:1005A000012070472DE9FF5F15468A460446DFF8B3
:1005B000AC80F8440027D8E900103E46CDE9001091
:1005C00010E03AF816106A4602A800F08DFD411CB2
:1005D00007D02178890603D5E269391891420DD8F0
:1005E0000744761C2078800602D5E069B84205DD14
:1005F000AE42E6DB3AF816000028E2D1A069C01B43
:10060000A0612046FFF71CFFD8E90010CDE90010DB
:10061000002017E03AF818106A4602A800F064FDBE
:10062000B0F1FF3F81460BD000250DF1080B05E02E
:10063000D4E901211BF8050090476D1C4D45F7D307
:1006400008F10100B0428046E4DB206A38442062B1
:100650002046FFF70BFFBDE8FF9F00007EFE010074
:1006600070B5044621461068FFF71AFF002104F117
:10067000240505E000F007023032C0086A54491C26
:100680000028F7D12068002307A2050707D58006B8
:1006900000D421B1E069012304A2401EE06120469C
:1006A000BDE8704000F027BC0000000030000000F2
:1006B000F0B40D460188090502D51B4C7C4402E0CC
:1006C000194C7C440E34002100F1240305E002F0B3
:1006D0000F061209A65D5E54491C002AF7D1027864
:1006E0000023120704D5702D06D009B1022311345E
:1006F0002246F0BC00F0FFBB01231034F8E770B5D0
:1007000004460D4621461068FFF7CAFE02462946F8
:100710002046BDE87040CBE70368126843F0200331
:1007200003600823C361C3E77CFD01002DE9F05F8E
:10073000894604464FF0000ADFF874B1FB44C0F864
:1007400020A02046E1688847002874D0252806D0DC
:10075000D4E901219047206A401C2062F1E700267D
:100760005F462046E16888472028054607DB312D93
:1007700005D2781910F8200C08B10643F1E7B0074C
:1007800001D526F00406C4F81CA00027C4F818A060
:100790002A2D09D0284604F02CF938B304EB870839
:1007A000303DC8F8185019E059F8041B204604EBF6
:1007B00087029161E1688847012F054618D1E069F9
:1007C000002820DA26F020061DE0D8F8180000EBFB
:1007D000800005EB40003038C8F818002046E1687A
:1007E0008847054604F005F90028EED1012F0AD00C
:1007F0002E2D08D12046E16888477F1C0546022F30
:1008000046F02006C4DBA069002803DA404246F027
:100810000106A061F00701D026F010066C2D0BD068
:10082000682D09D04C2D39D06A2D35D0742D35D096
:100830007A2D33D016E038E0E1682F46204688470D
:10084000B842054609D16C2F26D04FF48060E1688C
:10085000064320468847054604E06C2F1AD04FF423
:10086000807006430DB3A5F14100192802D8203548
:1008700046F400664A462946204626604E46FFF763
:10088000DDFC80B101280BD0F61D26F0070000F139
:10089000080956E74020E4E78020D8E70020D6E7A3
:1008A00006F104094DE7284652E7206ABDE8F09FAB
:1008B00024FD01000FB400B58DB010A9099000917E
:1008C0000B904FF0FF300A9000200C9006487844BF
:1008D0000690064878446A4607900F9909A800F0E8
:1008E000D3FB0DB05DF814FBD7070000EF07000045
:1008F0002DE9FF5F1D464FF0FF3B91464FF000088A
:100900005F46D5E90146A96901987F1C8847296A95
:10091000824688470028F6D1BAF1FF3F0CD0002E5E
:1009200024F4C06419DD600614D5BAF12B0F09D088
:10093000BAF12D0F0ED103E0584604B0BDE8F09F88
:1009400044F48064A96901987F1C8847761E82461A
:10095000002E02DDBAF1300F03D0B9F1000F26D01E
:1009600032E0A969761E01987F1C44F40074884720
:10097000002E824605DDBAF1780F06D0BAF1580F85
:1009800003D0B9F1000F10D01EE0B9F1000F02D072
:10099000B9F1100F18D1A969761E01987F1C24F4B3
:1009A000007488478246102002E0082000E00A20F8
:1009B000814609E0A96908FB0908761E01987F1C99
:1009C00044F4007488478246002E05DD49465046AF
:1009D00000F046FB0028EDDAE96901988847A00598
:1009E00002D46FF00100A8E7E00725D1600613D517
:1009F000600502D5C8F1000000E0404629680A1DE4
:100A00002A600968220501D5087015E0220701D582
:100A1000088011E008600FE02868011D2960006867
:100A2000210502D580F8008006E0210702D5A0F854
:100A3000008001E0C0F8008038467EE72DE9FF5FC6
:100A40004FF000089946144646469169D2E901A73D
:100A5000DDF838B001988847054659EA0B0005D003
:100A600009E0A1690198761C88470546216A284655
:100A700088470028F5D1681C03D05FEACA7005D00A
:100A800015E04FF0FF3004B0BDE8F09F2068011D75
:100A90002160D0F800800AE05FEACA7001D108F84E
:100AA000015BA169761C01987F1E88470546002FCF
:100AB0001ADD681C18D0B9F1000F0DD0E81705EB4E
:100AC000D060421120F01F0059F822102A1A01208C
:100AD00090400142E0D107E0BBF1000FDCD1284695
:100AE000216A88470028D7D0E16901988847BBF17F
:100AF000000F07D1002E05DD5FEACA7002D1002188
:100B000088F80010A068B84203DDBBF1000F03D0E5
:100B100017B16FF00100B6E73046B4E7401ECAB225
:100B200010F8011F8A4202D00029F9D10020704735
:100B300040EA010310B59B070FD1042A0DD310C85A
:100B400008C9121F9C42F8D020BA19BA884201D9AC
:100B5000012010BD4FF0FF3010BD1AB1D30703D0F4
:100B6000521C07E0002010BD10F8013B11F8014BAA
:100B70001B1B07D110F8013B11F8014B1B1B01D1C6
:100B8000921EF1D1184610BD40EA0103024630B56D
:100B90009B0710D14FF0013400E008C208C91D1BAB
:100BA0009D4315EAC41FF8D013F0FF0102F8011BA2
:100BB0000DD01B0AF8E711F8013B002B02F8013BAE
:100BC00005D011F8013B002B02F8013BF3D130BDF9
:100BD00010B5431C02E010F8011B71B18107FAD176
:100BE0004FF0013202C88C1A8C4314EAC211F9D0BA
:100BF000C01A0A0603D0C01E10BDC01A10BD0A04D8
:100C000001D0801E10BD0902FCD0401E10BD421E46
:100C100012F8013F002BFBD111F8013B002B02F829
:100C2000013BF9D17047032A40F2308010F0030CE9
:100C300000F0158011F8013BBCF1020F624498BF2F
:100C400011F801CB00F8013B38BF11F8013BA2F1CC
:100C5000040298BF00F801CB38BF00F8013B11F047
:100C6000030300F02580083AC0F0088051F8043BE7
:100C7000083A51F804CBA0E80810F5E7121D5CBF54
:100C800051F8043B40F8043BAFF30080D20724BF87
:100C900011F8013B11F801CB48BF11F8012B24BF1B
:100CA00000F8013B00F801CB48BF00F8012B70476A
:100CB00010B5203AC0F00B80B1E81850203AA0E8F7
:100CC0001850B1E81850A0E81850BFF4F5AF5FEA2B
:100CD000027C24BFB1E81850A0E8185044BF18C9DE
:100CE00018C0BDE810405FEA827C24BF51F8043B85
:100CF00040F8043B08BF7047D20728BF31F8023BD9
:100D000048BF11F8012B28BF20F8023B48BF00F86C
:100D1000012B704702F0FF0343EA032242EA02423A
:100D200000F002B84FF000020429C0F0128010F069
:100D3000030C00F01B80CCF1040CBCF1020F18BFB7
:100D400000F8012BA8BF20F8022BA1EB0C0100F04A
:100D50000DB85FEAC17C24BF00F8012B00F8012B1D
:100D600048BF00F8012B70474FF0000200B5134652
:100D700094469646203922BFA0E80C50A0E80C50BB
:100D8000B1F12001BFF4F7AF090728BFA0E80C506C
:100D900048BF0CC05DF804EB890028BF40F8042B65
:100DA00008BF704748BF20F8022B11F0804F18BFD2
:100DB00000F8012B704710B5044610F0030F08BF70
:100DC00011F0030F40F015804FF0013E121FC0F2EA
:100DD0000E8051F8043BA3EB0E0C2CEA030C1CEA2A
:100DE000CE1C08BF40F8043BF0D0A1F1040102F191
:100DF0000402521E08DB11F8013B002B00F8013BF6
:100E0000F7D11146FFF78EFF204610BD4FF0013C91
:100E100050F8042B51F8043B9A4221D1A2EB0C0369
:100E2000934313EACC1317D150F8042B51F8043B29
:100E30009A4215D1A2EB0C03934313EACC130BD1C6
:100E400050F8042B51F8043B9A4209D1A2EB0C0351
:100E5000934313EACC13DBD04FF00000704700BF80
:100E6000D01A01BAB1FA81F101F0180122FA01F0A9
:100E7000CB40C1F12001DBB2C0B2C01A2CFA01F3A1
:100E8000D11A914311EAC311E6D1704770477047F8
:100E90007047A0E8004FF0C040F804DB01B5AFF3A5
:100EA0000080BDE8024001C10020A1EC068BA1EC4E
:100EB00002BBA1EC06CBA1EC02FB704700F12C08B1
:100EC0000C46B8EC068BB8EC02BBB8EC06CBB8EC21
:100ED00002FB00F12C0858F8040DAFF3008058F81D
:100EE000040D8546200008BF012038E9F00018E90C
:100EF000004F704770472DE9F0470D4699469246DE
:100F0000044600F124080168880604D5E06921F050
:100F10001001216000E00120A84201DD471B00E034
:100F20000027A1697A1902EB0900081AA06120784C
:100F3000C00602D42046FFF783FA002608E0D4E971
:100F400001211AF806009047206A401C761C206296
:100F50004E45F4DB2078C0060AD52046FFF770FA2C
:100F600006E0D4E9012130209047206A401C20622D
:100F7000381EA7F10107F4DC07E0D4E9012118F8D5
:100F800005009047206A401C2062281EA5F101053B
:100F9000F3DC2046FFF76AFA2078000602D502202B
:100FA000BDE8F0870120FBE701694A1C026108786F
:100FB000704700B58FB0CDE9013100210591054999
:100FC0007944CDE9031011466846FFF7AFFB0FB037
:100FD00000BD0000E5FFFFFF0A6802F8010B0A6090
:100FE000704710B5436913B1AFF3008001E0FFF71C
:100FF00060FA012010BD127800F124010A7000226D
:101000004A700122EDE711684FF0FF32E9E7000076
:10101000074B70B50D467B44FFF7CBFF04462846CF
:1010200000F04EFA10B14FF0FF3070BD204670BD99
:101030008F8C000010B5436913B1AFF3008001E05D
:10104000FFF7B0FA012010BD128800F1240182845C
:101050000022C2840122EDE711684FF0FF32E9E778
:101060003A2800D2303820F02002412A01D3A2F1E0
:101070003700884201D34FF0FF30704702681144B7
:101080001378016018467047D16005497944516171
:1010900004497944116200211161114600F056B8EB
:1010A000EDFFFFFFA3000000426842B1016811F8A4
:1010B000013B23B1521EC0E90012184670470121BE
:1010C000C160881E704742685AB1C368016843B95D
:1010D00083688B4205D0491E521CC0E900120020D3
:1010E00070474FF0FF30704770B516460C46054606
:1010F00000F01AF8036893F80101012806D0FF2CCC
:101100000FD8185D68B101202C7070BDD3F80701AD
:101110003246214603F2071303442846BDE87040D7
:1011200018474FF0FF3070BD10B500F0F3F9001D07
:1011300010BD00BF41AC010010B50446FFF7F4FF3D
:101140000068005D00F0010010BD00002DE9F34FC4
:101150004FF0000A0C4656468DB001200C9001F16C
:101160000C000B9062690B9801219047051E2DD051
:10117000252D2CD0216A8847C0B162690B980121C6
:101180009047216A88470028F7D16269411E0B9871
:10119000904700E0761CA1690D988847216A88472E
:1011A0000028F7D1E1690D988847DBE7A1690D9820
:1011B0008847A842074601D1761CD3E7E1690D981C
:1011C00088477F1C02D1BAF1000F6FD06CE16269D1
:1011D0000B9800273D46394690472A2804D162697A
:1011E0000B98012190470125DFF8D08262690B98A6
:1011F00001219047A0F130010A290AD24745E5DCD8
:1012000007EB870100EB4107303FDFD445F01005C5
:10121000ECE7E90601D46FF000476C280AD04C28AF
:1012200014D0682815D06A280DD074281CD07A28CC
:101230001AD01DE062690B98012190476C2802D0FA
:1012400045F0040514E045F002050DE045F02005E9
:101250000AE062690B9801219047682802D045F0A6
:10126000080505E045F4006562690B980121904787
:10127000C4E9015765283DD019DC58287AD00CDC28
:10128000452837D004DC252826D041289ED131E0DE
:1012900046282FD0472899D12CE05B2877D06128A9
:1012A00028D063287CD0642823D15AE0F7E06F2847
:1012B00048D008DC66281DD067281BD0692821D0BB
:1012C0006E2816D127E0702845D0732868D075287D
:1012D00047D078280DD14DE0A1690D988847252881
:1012E00005463FF469AFE1690D9888476D1C3FF4EE
:1012F0006AAFD9E00D9923466A466FF00100AFF35B
:101300000080C6E045F0400023464FF000026060D8
:10131000A80736D43EE0E8077FF447AF2068011DF8
:1013200021600068290501D506701BE7290701D552
:10133000068017E7A90703D5F117C0E9006111E797
:1013400006600FE745F0400023464FF0080260605A
:10135000A80716D41EE040F60E0125EA01006060E1
:1013600016E045F0400023464FF00A026060A807EF
:1013700007D40FE045F040006060A80708D5234679
:1013800010220D996FF00100AFF3008081E007E0BB
:10139000102223460D996FF00100FFF7A9FA78E0BB
:1013A0004FF0000963284F46C8464B46CB4602D053
:1013B0005B2807D039E02079C00601D40120A06065
:1013C000012732E06269D4F80CB00B9801219047F4
:1013D0005E2807D14FF0010949466269D4F80CB084
:1013E0000B989047216939B900210A4603AB43F8AD
:1013F0002120491C0829FADBD8B3216949B308F137
:10140000010862690B98012190475D28F4D1B9F178
:10141000000F09D0002003A951F82020D24341F841
:101420002020401C0828F7DB03AB20690028207926
:101430004FEA40701ED05B462246CDF80080CDE9D1
:1014400001970D9900286FF0010020DAAFF30080BA
:101450001FE0C11703AA00EBD1614B1121F01F015E
:1014600002EB8302411A1368012088400343136092
:10147000C7E719E00D99224600286FF00100009798
:1014800002DAAFF3008004E0FFF7D8FA01E0AFF32F
:10149000008000280ADA401C06D10C9820B14FF0D9
:1014A000FF300FB0BDE8F08F5046FAE7E90701D1F1
:1014B0000AF1010A064400200C9053E6CCCCCC0C77
:1014C000007B00F080007047754600F031F8AE46B2
:1014D00005006946534620F00700854618B020B540
:1014E000FEF704FFBDE820404FF000064FF0000774
:1014F0004FF000084FF0000B21F00701AC46ACE8BC
:10150000C009ACE8C009ACE8C009ACE8C0098D4628
:101510007047000000487047ECC6012010B5044633
:10152000AFF300802046BDE81040FEF7C4BE0000C7
:1015300000487047CCC60120FEE7000030B41A48CE
:101540001B4D1B4A0068194B194C603DB83A984234
:1015500002D91649543903E0A04203D91349583936
:10156000096804E0A84201D9516800E0116811F04F
:10157000200F16D02021984202D90C484C3803E0A5
:10158000A04203D909485038016004E0A84201D9BB
:10159000D16000E0916007480068002801D030BCAD
:1015A000004730BC70470000C01A00205864024059
:1015B000B86002402C00002001681823CAB2103A1B
:1015C000B2FBF3F2054B6FF30901032A9B5CC36581
:1015D00000D9091D8165084670470000ACC00108AC
:1015E00010B5014600208B698A6A4FF0C07453B170
:1015F000B3F5005F15D072B1012A0CD0022A0AD0CF
:10160000032A09D104E01AB1012A06D0022A03D123
:10161000C96AC90100D5012010BDC96AA142FAD02A
:1016200010BD002AF7D0012AF2D0022AF3D0032AF3
:10163000F3D010BD10B5046863608368402B036865
:1016400003D099600068C26010BD9A600068C160F4
:1016500010BD704770B5B3F5804F05D06FF0704185
:1016600040F82210002070BD50F82230084C234072
:10167000D1E9004544EA05148D688E892D0245EABA
:10168000064589692C430C431C4340F82240E9E796
:101690000000F0CFF0B50C6850F82450114A154006
:1016A000D1E90123D1E903671A433E4332434E692E
:1016B00032438E693243CE6932430E6A32434E6AF8
:1016C00032438E6A3243CE6A3243CE6B096B324369
:1016D0000A432A43082B01D142F0400240F824205B
:1016E0000020F0BD8000F0FF30B500EB82004268C2
:1016F000D1E9003443EA04138C688D89240244EA5A
:10170000054423430C8A084D02F0404205EB045483
:1017100023430C7D6D0105EB0464896923430B436E
:1017200013434360002030BD0000F0FF2DE9F0417D
:10173000044680680025069E80280ED094F8340068
:1017400001280FD0012084F8340094F835000128D6
:101750000AD002252846BDE8F0814FF4807060650C
:101760000125F7E70220F6E7022084F8350020681B
:10177000076847F4802707602068036133462046E6
:10178000FFF758FF2068016841F001010160E1E7BF
:101790002DE9F0410446876D00F0F0F9054694F814
:1017A00035000026022806D08020606584F8346069
:1017B0000120BDE8F0812068016821F01601016078
:1017C0002068416921F080014161206C08B9A06C5A
:1017D00020B12068016821F00801016020680168DB
:1017E00021F0010101600BE000F0C8F9401B052861
:1017F00006D92020606504F8346F03206070D8E7B4
:1018000020680068C007EFD194F85C103F20884042
:10181000B86004F8346F012060700020C9E790F8C8
:101820003510022903D08021416501207047052130
:1018300080F835100068016821F001010160002086
:10184000704770B504002BD094F83500022826D0DC
:101850002068016821F00101016020680025056011
:1018600020684560206885602068C5602068056143
:101870002168212048612046FFF79EFEE56325642C
:101880006564A564E564256594F85C203F2191407A
:101890008160656584F8355084F83450002070BD4F
:1018A000012070BD2DE9F041044600F067F90546BE
:1018B0005CB1002684F83460022084F8350020688A
:1018C000016821F0010101600DE00120BDE8F08117
:1018D00000F054F9401B052805D92020606503203D
:1018E00084F83500F2E720680068C007F0D121686D
:1018F0000A6820480240D4E901031843D4E90335BB
:101900002B43184363691843A3691843E3691843D9
:10191000236A18431043626A042A03D1D4E90B23D3
:101920001A431043086020684069656A20F0070187
:1019300028460D43012704280CD1A06A0543E06A1C
:1019400040B12046FFF74CFE20B14020606584F88E
:101950003570BAE7206845612046FFF72DFE94F800
:101960005C203F2191408160666584F835700020DD
:10197000ACE700003F8010F080B206F005B900002F
:101980002DE9F84FDFF89891002209F1040A0AF1D5
:10199000040B03274FF00F0C0BF1040E01250B680D
:1019A00095402B40AB4272D10C7904F00304012C1A
:1019B00001D0022C15D18668540007FA04F826EAF3
:1019C0000806D1F80C8008FA04F848EA0608C0F8BE
:1019D00008804468AC430D79C5F300159540254354
:1019E00045600C79E443A40708D0C568540007FAA1
:1019F00004F6B5438E68A6402E43C6600C7904F009
:101A00000304022C11D1D40800EB8406356A540774
:101A1000E40E0CFA04F825EA0805D1F8108008FA5B
:101A200004F848EA0508C6F820800568540007FA5B
:101A300004F6B5430E7906F00306A6402E43066071
:101A40004C68E40066D5374C256845F48045256030
:101A5000246822F0030504F480440094324C05EB22
:101A60000408D8F808589407260F0CFA06F4A54382
:101A70002E4CA04201D1002424E02D4CA04201D1E3
:101A800001241FE02B4CA04202D102241AE041E0C5
:101A9000294CA04201D1032414E0284CA04201D1DA
:101AA00004240FE0264CA04201D105240AE0254C75
:101AB000A04201D1062405E0234CA04201D1072415
:101AC00000E00824B4402C43C8F80848D9F8004086
:101AD0004D464E689C43F60300D51C432C60DAF853
:101AE000004055464E689C43B60300D51C432C600D
:101AF000DBF800405D464E689C43F60200D51C436F
:101B00002C60DEF8004075464E689C43B60200D556
:101B10001C432C60521C102AFFF440AFBDE8F88F24
:101B2000003C0140443802400030014000000240C7
:101B30000004024000080240000C02400010024075
:101B40000014024000180240001C024000690840D6
:101B500000D001207047426921EA02030A4043EAAB
:101B60000241816170470AB1816170470904FBE756
:101B700001480068000C7047002004E001488068BC
:101B800070470000180000202DE9FF41044600685E
:101B90008168784A784D4FF040260091904201D1FB
:101BA000294600E0314689680191406890460290DC
:101BB00001D1284600E030464068039060684FF04D
:101BC0000107B0F5007F1CD0D8B1880705D5039870
:101BD000000602D5204601F0A3FF0098C0070FD0F1
:101BE000029840067FD521682046CA68E16A8B1CAE
:101BF000E3620A80618E491E6186618E002967D08A
:101C000071E00098800719D50298000616D5616A20
:101C100020468A1C626222680988D160618D491E53
:101C20006185618D51B901684A6822F0A0024A605D
:101C3000418E19B980F8417000F0A0F80198C007F2
:101C400005D00398400602D5204601F039FF0198DF
:101C5000400622D5039880061FD52168414501D151
:101C6000284600E03046406820F0600101D1284657
:101C700000E0304641602068416821F0A0014160E9
:101C80002068C1688068019084F84170606C40F001
:101C900002006064204600F072F80098000767D5E3
:101CA0000298800664D52068416821F0A001416057
:101CB0002168414501D1284600E03046406820F0C7
:101CC000600000D03546686020688068009043E07E
:101CD00001684A6822F060024A60418D19B980F8B3
:101CE000417000F04BF8009840061ED5029880061F
:101CF0001BD52068416821F06001416021684145A1
:101D000001D1284600E03046406820F0A00101D112
:101D1000284600E03046416084F84170606C40F035
:101D200002006064204600F02AF8019800071FD5E1
:101D3000039880061CD52168414501D1284600E062
:101D40003046406820F0A00000D03546686020682A
:101D5000416821F06001416084F84170606C40F09E
:101D60000400606404B02046BDE8F04100F007B80C
:101D7000BDE8FF81003800400034004070477047E4
:101D80002DE9F047040005D094F841004FF0000819
:101D900018B109E00120BDE8F08784F8408051487F
:101DA0006063204600F0A6F8022684F841602068AF
:101DB000C16940F6BF77B943C161206806626069B6
:101DC0004FF40079022828D0E06870B12025A0687F
:101DD000202800D86D00012000F074F921694945E0
:101DE00018D1E16819B1A90002E01025EFE7E90078
:101DF000B0FBF1F000EB800061694000B0FBF1F056
:101E0000401D0A21B0FBF1F000F00101401A40082A
:101E1000090204E0B0FBF5F0ECE702200021821E8D
:101E2000FE2A04D3606C40F010006064B2E72269BF
:101E30000843024320680262D4E901100143A26909
:101E4000E068104301432068C269BA43114341F47A
:101E50000061C161206A01283AD123486063234DA3
:101E6000226823484FF04021AA4201D1024600E0F7
:101E70000A46D36923EA070301D1024600E00A4675
:101E8000D3612268AA4201D1024600E00A461662E6
:101E90002368AB4201D1024600E00A46D26996B2FD
:101EA00062684A451BD0D2B100222789B4F80CC021
:101EB00047EA0C07B4F818C04CEA020C47EA0C07D2
:101EC000BAB2324342F40062AB4200D00846C2616B
:101ED000C4F84480012084F8410000205BE74FF4FF
:101EE0008072E2E7813B0008891B0008003800404F
:101EF00000340040304810B5016886B041F480419C
:101F00000160006800F4804005902B48103801689B
:101F100041F002010160016801F0020105910168D0
:101F200041F002010160016801F0020105910168C0
:101F300041F004010160016801F0040105910168AC
:101F400041F004010160016801F00401059101689C
:101F500041F0040101600068184C00F00400059095
:101F60004FF4805000900220019001200290032045
:101F700003900520049069462046FFF701FD4FF4C9
:101F80000051009169462046FFF7FAFC04200C4CF2
:101F9000009069462046FFF7F3FC0821009169464E
:101FA0002046FFF7EDFC4021009169462046FFF7EF
:101FB000E7FC06B010BD00004038024000040240BB
:101FC0000008024070477047024881680278114457
:101FD0008160704718000020094810B5016841F47D
:101FE00000710160016841F480610160052000F02A
:101FF00057F80F2000F006F800F024F8002010BD7C
:10200000003C024070B50D4D04464FF47A712878BB
:10201000B1FBF0F00A490968B1FBF0F001F006FAF3
:1020200048B9102C07D200222146501E00F018F8A3
:1020300000206C6070BD012070BD00001800002001
:10204000000000207047002809DB00F01F0201217A
:1020500091404009800000F1E020C0F80011704775
:10206000F0B40E4B1B68C3F30223C3F10704042C26
:1020700000D904241D1D072D01D2002300E0DB1E22
:10208000012606FA04F56D1E0D409D409E40761E09
:10209000164045EA0601F0BC02F09BBC0CED00E0E6
:1020A000064A00F0070110684FF6FF03184040EAA7
:1020B0000120034908431060704700000CED00E068
:1020C0000000FA0501460020012907D110490968DE
:1020D00011F4000103D0012900D10E4870470C48CB
:1020E000001F01680068490200F03F0001D50A495D
:1020F00000E00A49064AB1FBF0F07C321168C1F3F6
:10210000881141431068C0F30270B1FBF0F07047D2
:10211000083802400080BB0000127A000024F4005E
:102120002DE9F843044600684FF00109C1074FF05C
:10213000000501D1400726D5DFF80C81C8F86850AA
:10214000FFF71CFD0646414F04E0FFF717FD801B1B
:10215000022857D838680001F7D46068217A8001D6
:1021600040EA0170394984310860C8F86890FFF787
:1021700005FD064604E0FFF701FD801B022841D85B
:1021800038680001F7D52078800752D52F484030B5
:10219000016841F08051016000682D4F00F08050CF
:1021A0000090386840F480703860FFF7E7FC06461E
:1021B00004E0FFF7E3FC801B022823D83868C00541
:1021C000F7D5224E7036306810F4407020D0A189C7
:1021D00001F4407181421BD030681E4920F44070E8
:1021E000C1F800900D6030603068C00710D0FFF774
:1021F000C5FC054641F2883707E0FFF7BFFC401BEE
:10220000B84202D90320BDE8F88330688007F4D5CE
:10221000E0680E49C0F301220831032A0BD0086898
:1022200020F4F81008603068A189C1F30B0108435D
:1022300030600020E7E70A68074B22F4F8121840E4
:1022400002430A60EFE70000000047420038024006
:1022500000700040400E4742FFFCFF0F2DE9F047A1
:102260000D46040065D0DFF81491D9F80000EFB2F4
:1022700000F00700A84207D289F80070D9F80000E2
:1022800000F00700A84254D120683D4E810712D5C6
:10229000400703D5306840F4E050306020780007F4
:1022A00003D5306840F4604030603068A16820F0A9
:1022B000F000084330602078C0072DD030496068B6
:1022C0000839012812D0022813D0032811D0096838
:1022D000890700292DDA316821F0030101433160BB
:1022E000FFF74CFC804641F2883A0EE0096889030A
:1022F000EFE709688901ECE7FFF740FCA0EB080174
:10230000514502D90320BDE8F0873068616800F0CC
:102310000C00B0EB810FEFD1D9F80010484601F066
:102320000701A94207D90770006800F00700A8421A
:1023300001D00120E7E72078400705D53068E16843
:1023400020F4E050084330602078000706D530685C
:10235000216920F4604040EAC100306000F038F8A4
:102360003168084AC1F30311515CC840064908604E
:1023700006480068FFF746FE0020C4E7003C024024
:102380000838024094C00108000000201C00002012
:102390000448054900680968044AC1F38221515C78
:1023A000C84070470000002008380240A4C001085F
:1023B0000448054900680968044AC1F34231515C88
:1023C000C84070470000002008380240A4C001083F
:1023D000154810B5006810F00C01144813D04310D4
:1023E00004290FD008290ED10F4C241F216801F0B9
:1023F0003F022168490207D52068C0F38810A0FB7E
:10240000030106E0184610BD2168C1F38811A1FB45
:1024100000010023FDF77DFF2168C1F30141491C44
:102420004900B0FBF1F010BD083802400024F40070
:102430002DE9F84F040075D02078DFF838A3C007E5
:10244000AAF1040548D00AF104000168C1F3810132
:10245000012908D00068C0F3810002280AD1DAF807
:102460000000400206D52868800335D56068002842
:10247000E1D031E06068B0F5803F10D0B0F5A02F1A
:10248000286810D020F480302860286820F480204C
:1024900028606068A0B1FFF771FB06460CE0286871
:1024A00040F48030F4E740F480202860F7E7FFF73D
:1024B00065FB801B642871D828688003F7D50BE082
:1024C000FFF75CFB064604E0FFF758FB801B64281F
:1024D000F1D828688003F7D42078DFF89C92800731
:1024E0004FF0000B3DD5A348001D016811F00C0F03
:1024F00008D00068C0F3810002280AD1DAF8000091
:10250000400206D42868800715D5E068012809D163
:1025100011E0E068B8B10120C9F80000FFF72EFB18
:10252000064605E022E1FFF729FB801B0228C2D8FE
:1025300028688007F7D52868216920F0F80040EA6C
:10254000C10028600DE0C9F800B0FFF717FB064690
:1025500004E0FFF713FB801B02281FD828688007C0
:10256000F7D42078000722D5824F844861697037FC
:1025700071B101210160FFF701FB064604E0FFF79E
:10258000FDFA801B022809D838688007F7D50EE0CD
:10259000C0F800B0FFF7F2FA064605E082E0FFF768
:1025A000EDFA801B02287DD838688007F7D42078A0
:1025B000400765D56F484FF000083C300068C00008
:1025C0000BD46C483C30016841F0805101600068D8
:1025D0004FF0010800F080500090694F3868C00546
:1025E0000FD4386840F480703860FFF7C7FA0646A9
:1025F00004E0FFF7C3FA801B022853D83868C005EF
:10260000F7D55C4FA0686C3701280FD005283868D3
:1026100010D020F001003860386820F004003860E5
:10262000A068B0B1FFF7AAFA06460EE0386840F09D
:102630000100F4E740F004003860F7E7FFF79EFA86
:10264000811B41F28830814263D838688007F5D514
:102650000DE0FFF793FA064606E0FFF78FFA811BBD
:1026600041F28830814254D838688007F5D4B8F1F7
:10267000000F05D03F483C30016821F080510160D7
:10268000A069B8B33B49091D0968C1F3810102295A
:1026900046D00228584606D0C9F86000FFF76EFA07
:1026A000044639E035E04F46C9F86000FFF766FAA6
:1026B000064604E0FFF762FA801B022829D8286842
:1026C0008001F7D4D4E907010843A16A2D4A4908DB
:1026D00002EB0141626A41EA8211084394F82C102E
:1026E00040EA0161CAF8001001203866FFF746FA97
:1026F000044605E03CE0FFF741FA001B022808D839
:1027000028688001F7D533E0FFF738FA001B02286C
:1027100002D90320BDE8F88F28688001F4D427E0AF
:102720000128F7D0DAF80000E26900F48001914254
:102730001CD1226A00F03F01914217D147F6C071C7
:10274000626A0140B1EB821F10D1A26A4FF0FF33E1
:1027500000F4403103EB5202B1EB024F06D194F882
:102760002C1000F07060B0EB016F01D00120D1E7B8
:102770000020CFE70438024000004742800E474265
:10278000007000400000FFFF2DE9FE4304460026D4
:1027900003200D4684F83400606C03285ED0B5F544
:1027A000805F5BD04FF4006700204FF08068BD422F
:1027B0001FD18146009001900021206801F072FA3B
:1027C000800113D46946204601F08AFD07000DD12F
:1027D0000198400334D5B4F850000104206801F09A
:1027E00096FA070002D10221206823E0A06B38434B
:1027F00028E01DB1A06B40F0006023E0814600900E
:1028000001900021206801F04DFA8001EED4694664
:10281000204601F065FD0700E8D10198C0030FD5FF
:10282000B4F850000104206801F071FA0700DDD10E
:102830000021206801F0B6FA0700D7D14F46D5E74E
:102840004746D3E7A063A06B144F4FF0010848B18F
:102850002068876384F8348001260EE0A06B40F086
:102860008050EFE7211DD4E9050C0EC9CDE90050D9
:10287000CDF808C0206801F018FA4FF40071206804
:1028800001F078FA28B121688F63A16B0143A1633D
:10289000012684F834803046BDE8FE83FF05400001
:1028A000F0B5426E920F0A70426EC2F383624A70B4
:1028B000426EC2F301628A70426E120CCA70B0F8A6
:1028C0006420120A0A7190F864204A71826E120D17
:1028D000CA80826EC2F303420A72B0F86820C2F363
:1028E000C0324A72B0F86820C2F380328A72B0F8FF
:1028F0006820C2F34032CA72B0F86820C2F30032D6
:102900000A7300264E73436C4FF40075012463B1C3
:10291000012B3AD0026847499163816B41F08051A5
:10292000816380F834400120F0BDB0F86820C36EA8
:102930009205120D42EA93720A61C26EC2F3C2623C
:102940000A75C26EC2F302624A75C26EC2F3425287
:102950008A75C26EC2F38242CA75C26EC2F3C232B7
:102960000A760B695B1C43650A7E02F00702921C23
:10297000934043650A7A02F00F0704FA07F2826572
:10298000520A5343C0E917350EE090F86820C36E31
:102990009206920A42EA13420A610A69521C9302A1
:1029A0004365C0E91653056630F86C2FC2F38032D8
:1029B00001F8192F0288C2F3C6124A70027802F099
:1029C0007F028A704268D20FCA704268C2F34172B5
:1029D0000A714268C2F382624A714268C2F383524A
:1029E0008A714268C2F34052CA710E724268C2F3E1
:1029F00000424A728288C2F3C0328A728288C2F36D
:102A00008032CA728288C2F340320A738288C2F36B
:102A100000324A738288C2F381228A738288C2F3A9
:102A20000122CA730079C0F3460008744C74002078
:102A3000F0BD0000FF054000426C0A60826C4A60F5
:102A4000C26C8A60026DCA60426D0A61826D4A6121
:102A5000C26D8A61006EC8610020704738B50025DC
:102A600004460095B0F850000104206801F0A0FA77
:102A700028B90021206801F015F90090284610B10E
:102A8000A16B0143A1630098C0F3432038BD70B52A
:102A900004000ED094F83400002518B9257720469C
:102AA00000F04AF8032084F83400204600F00AF8C9
:102AB00008B1012070BDA5632563012084F83400AE
:102AC000002070BDFEB50025044676200095CDE9B6
:102AD000015029460B460A46206801F0E6F828BB5B
:102AE000134E46F8A05F206801F0F1F8012535602B
:102AF000204601F0D9FC28B184F83450A16B014381
:102B0000A16313E0204601F058FC0028F4D14FF4F3
:102B10000071206801F02EF9002808D022680549CC
:102B20009163A16B0143A16384F834500120FEBD81
:102B300000802542FF054000354810B5016886B089
:102B400041F400610160006800F4006005903048C5
:102B50001438016841F004010160016801F00401CA
:102B60000591016841F004010160016801F0040170
:102B70000591016841F004010160016801F0040160
:102B80000591016841F004010160016801F0040150
:102B90000591016841F004010160016801F0040140
:102BA0000591016841F0080101600068012100F011
:102BB000080005904FF4807000900220CDE90101DB
:102BC00003900C20134C049069462046FEF7D8FE73
:102BD0006115009169462046FEF7D2FE211500914D
:102BE00069462046FEF7CCFEE11400916946204676
:102BF000FEF7C6FEA014009069462046FEF7C0FE10
:102C00000420009069460448FEF7BAFE06B010BDE5
:102C10004438024000080240000C02402DE9FF4FFA
:102C200087B016460D460446DDF85080FEF7A6FF35
:102C300082463DB194F83400012807D0A06B40F0E3
:102C400000500DE0A06B40F0006009E00020A063A0
:102C50000A99E26D3144914204D9A06B40F00070B2
:102C6000A06385E0032184F834102168C862616C98
:102C7000012900D076024FF0FF3100910A994FF000
:102C800001094902019102AA902102278346CDF849
:102C9000149082E882086946206800F0EDFF0A98E7
:102CA000012805D927633146206801F0F5F805E0D1
:102CB000C4F830903146206801F006F930B122683E
:102CC0004C499163A16B0143A1634DE0019E1FE05C
:102CD000406B000413D596B10027206800F0FFFF79
:102CE00005F8010B010A05F8011B010C05F8021B90
:102CF000000E361F7F1C05F8010C082FEDD3FEF7E0
:102D00003DFFA0EB0A0141451FD2B8F1000F1CD0D6
:102D10002068416B40F22A321142D9D0416BC9057B
:102D200009D50A99012906D9616C032903D001F05C
:102D30006FF90028C3D12068416B09071AD52D49C6
:102D40008163A06B40F0080051E021682948886346
:102D5000A06B40F00040A06384F83490C4F830B019
:102D600003200BB0BDE8F08F84F83490C4F830B085
:102D70000120F6E7416B890705D51E498163A06BE9
:102D800040F0020033E0416B89061CD5194981638C
:102D9000A06B40F020002AE000F0A1FF05F8010B35
:102DA000010A05F8011B010C05F8021B000E05F8CD
:102DB000010C361FFEF7E2FEA0EB0A01414510D2DE
:102DC000B8F1000F0DD02068416B890201D5002EAB
:102DD000E2D1216840F23A50886384F834900020B0
:102DE000BFE7216803488863A06B40F00040A06300
:102DF000BAE70000FF0540002DE9F04F89B09B467F
:102E000015460E460446FEF7B9FE07903EB194F80B
:102E10003400012807D0A06B40F000500DE0A06BFB
:102E200040F0006009E00021A163E26D05EB0B00BA
:102E3000904204D9A06B40F00070A06379E00320B9
:102E400084F834002068C162606C012800D06D02F3
:102E50004FF0FF3000904FEA4B204FF001090190F6
:102E6000CDE904199020CDE902018A46694620681F
:102E700000F002FFBBF1010F06D920202063294694
:102E8000206801F0DFF805E0102020632946206863
:102E900001F0F0F85FEA000806D021683F48886337
:102EA000A06B40EA080070E0019F26E0406B400400
:102EB0001BD5D7B1002516F8010B069016F8011B9B
:102EC0003F1F40EA0120069016F8021B40EA01402D
:102ED000069016F8011C40EA0160069006A92068D9
:102EE00000F010FF6D1C082DE5D3FEF747FE079993
:102EF000411A1298814220D2F8B12068416B40F209
:102F00001A321142D2D0416BC90523D5BBF1010F52
:102F100020D9616C03291DD001F07AF8D0B1226864
:102F20001E499163A16B0143A16384F83490C4F8F6
:102F300030A0012009B0BDE8F08F216817488863F0
:102F4000A06B40EA0800A06384F83490C4F830A075
:102F50000320EFE72068416B090705D50F4981631E
:102F6000A06B40F0080010E0416B890705D50B49C4
:102F70008163A06B40F0020007E0416BC90606D5F3
:102F800006498163A06B40F01000A063CDE740F2DA
:102F90003A51816384F834900020CBE7FF0540006C
:102FA00070B5040008D0606A002538B125616561FC
:102FB00094F8510040B10CE0012070BD6068B0F59C
:102FC000827FF5D0E561F3E784F85050204600F0A9
:102FD0004DF8022084F851002068016821F040017A
:102FE0000160A088218900F4827001F40441084343
:102FF000A18901F400610843217C01F0020108432A
:10300000217D01F001010843218B01F40071084387
:10301000217F01F03801084394F8201001F080016D
:103020000843218D01F40051084321680860A0691C
:10303000042101EA104094F8241001F01001084323
:1030400021684860A06AB0F5005F03D1A08D2168B7
:1030500080B208612068C16921F40061C1616565C1
:10306000012084F85100002070BD000010B50068F8
:103070001C4986B0884232D11B48016841F00201E8
:103080000160016801F002010591016841F002014F
:103090000160016801F002010591016841F002013F
:1030A00001600068012100F00200059008200090F6
:1030B0000220CDE90101039005200C4C04906946E3
:1030C0002046FEF75DFC1021009169462046FEF780
:1030D00057FC2021009169462046FEF751FC06B0BE
:1030E00010BD0000003001403038024000040240B2
:1030F0002DE9FF4F81B04FF0000A0446CDF800A043
:1031000090F850000E9E0125984693465746012898
:103110000FD0012084F85000FEF730FD94F85110D4
:1031200081466268404601290DD0B2F5827F08D100
:1031300003E0022005B0BDE8F08FA2680AB90429B7
:1031400001D0022706E10299F1B3BBF1000F3CD098
:10315000B8F1000F39D094F85110042902D005219C
:1031600084F85110C4F854A0C4F838B0A4F83E80D4
:10317000A4F83C80029A2263A4F83680A4F8348034
:10318000C4F840A0C4F844A0A16A4FF400584145D7
:1031900009D121680A6822F400520A6021680A688D
:1031A00042F400520A6021680A68520603D40A6891
:1031B00042F040020A60E168B1F5006F616806D034
:1031C000F1B301284ED08EE0FFE70127C2E009B13C
:1031D000012840D1206B21680088C860206B801CCA
:1031E0002063E08E401EE08635E020688168890714
:1031F00017D5E18EA9B1012D13D1216B0988C160CA
:10320000206B801C2063E08E401EE086E08E00254F
:1032100038B9A06A404504D12068016841F4805162
:10322000016020688168C9070DD0E18F59B1C0687D
:10323000A16B0880A06B801CA063E08F401E00E0A3
:1032400010E0E0870125FEF799FCA0EB0900B042F1
:1032500001D3701C5DD1E08E0028C6D1E08F00281C
:10326000C3D146E0206B216800780873206B401CB6
:103270002063E08E401EE08635E020688168890783
:1032800017D5E18EA9B1012D13D1216B09780173F6
:10329000206B401C2063E08E401EE086E08E0025FF
:1032A00038B9A06A404504D12068016841F48051D2
:1032B000016020688168C9070BD0E18F49B1C068FF
:1032C000A16B0870A06B401CA063E08F401EE087DC
:1032D0000125FEF753FCA0EB0900B04202D3701C9D
:1032E00001D016E0AEB1E08E0028C6D1E08F0028F4
:1032F000C3D1A06A404511D1012233461146204670
:10330000CDF8009001F052F928B1606D40F0020054
:10331000606503271EE02068C0680090206881680F
:10332000C90607D5616D41F0020161654FF6EF7185
:10333000816001274A463146204601F00BF918B159
:1033400001272020606505E0A06818B92068C168E1
:1033500080680090012084F8510084F850A038461D
:10336000E8E670B515460E46040003D094F849000F
:1033700010B107E0012070BD002084F8480020460D
:1033800000F01AF804F108012068FEF783F93146CD
:10339000A2682068FEF7A8F9D4E901022946236B48
:1033A000FEF758F9A168206850F8212042F0010288
:1033B00040F82120002070BD194800B5016887B091
:1033C00041F001010160006800F00100059014481F
:1033D0000838016841F008010160016801F0080146
:1033E0000591016841F0100101600068012100F0C1
:1033F000100005904CF2037000900220CDE901010D
:1034000003900C20049069460648FEF7B9FA4FF67F
:103410008070009069460448FEF7B2FA07B000BD1C
:1034200038380240000C02400010024010B5401E27
:10343000B0F1807F01D3012010BD4FF0E024606126
:103440000F21601701F0C5FA0020A061072020615C
:10345000002010BD7047704710B5040003D094F8E9
:103460003D0010B107E0012010BD002084F83C00B1
:10347000204600F01FF8022084F83D00211D20683E
:1034800001F022F9012084F8460084F83E0084F817
:103490003F0084F8400084F8410084F8420084F83A
:1034A000430084F8440084F8450084F83D0000207F
:1034B00010BD000008B500680B49884212D10B48C6
:1034C000016841F0100101600068032200F0100063
:1034D000009001213620FEF7C3FDBDE808403620EC
:1034E000FEF7B1BD08BD00000010004040380240AA
:1034F00090F83D10012901D001207047022180F889
:103500003D100168CA6842F00102CA6000681149B2
:10351000884214D0B0F1804F11D00F4988420ED0AC
:103520000E4988420BD00E49884208D00D49884286
:1035300005D00D49884202D00C49884204D18168E7
:1035400001F00701062903D0016841F00101016083
:1035500000207047000001400004004000080040C7
:10356000000C0040000401400040014000180040F1
:10357000704770B50446006801694FF00005C94303
:10358000890715D4C168C943890711D4E91E0161AF
:1035900001202077206880698007204602D0FFF74D
:1035A000E7FF04E000F098F8204600F096F8257751
:1035B00020680169C943490717D4C168C94349074D
:1035C00013D46FF004010161022020772068806924
:1035D00010F4407F204602D0FFF7CAFF04E000F05D
:1035E0007BF8204600F079F8257720680169C94307
:1035F000090716D4C168C943090712D46FF008013E
:103600000161042020772068C0698007204602D02D
:10361000FFF7AEFF04E000F05FF8204600F05DF831
:10362000257720680169C943C90617D4C168C94311
:10363000C90613D46FF010010161082020772068BB
:10364000C06910F4407F204602D0FFF791FF04E0EC
:1036500000F042F8204600F040F825772068016924
:10366000C943C90708D1C168C943C90704D1891E24
:103670000161204600F032F820680169C94309065B
:1036800009D4C168C943090605D46FF080010161FE
:103690002046FFF7DFFE20680169C943490609D4C7
:1036A000C168C943490605D46FF040010161204655
:1036B00000F034F820680169C94389060BD4C16859
:1036C000C943890607D46FF0200101612046BDE897
:1036D0007040FFF7C0BE70BD7047704770B50446BC
:1036E0000B480C4D0C4E844205D1002068807115AA
:1036F0003046FEF730FA06484830844207D10120B0
:10370000287081023046BDE87040FEF724BA70BDD3
:10371000201B00203000002000140240704770473A
:1037200070470000F8B5026804461068D168536914
:1037300010F00F0F4FF0000553D003F0010601F415
:10374000907737435FD0C20705D0CA0503D5226CF6
:1037500042F001022264420705D5DA0703D0226C49
:1037600042F002022264820705D5DA0703D0226CF8
:1037700042F004022264020707D501F0200232431E
:1037800003D0226C42F008022264226C002A34D05A
:10379000800604D5880602D5204601F019F8206875
:1037A0004069216CC0F38010090700D430B3204673
:1037B00000F0F6FF2068416949061BD5416921F0F8
:1037C00040014161A06BA8B159490165A06BFEF7AA
:1037D00026F8002811D0A06B016D01B0BDE8F040C3
:1037E000084783060FD58B060DD52046BDE8F84067
:1037F00000F0EEBF2046FFF793FFF8BD2046FFF72D
:103800008FFF2564F8BD266B2023012E53D1C606F9
:1038100051D5CE064FD510685068009050694006CB
:103820002BD5A16B086840680004000CEAD0A68D77
:103830008642E7D9E085C869B0F5807F18D0D068A6
:1038400020F48070D0602068416921F0010141615D
:103850002068416921F04001416184F83E302563D0
:103860002068C16821F01001C160A06BFDF790FFD6
:10387000A08DE18D401A81B219E0A08DE18D401A32
:1038800081B2E08D0028BDD00029BBD0D06820F4E3
:103890009070D0602068426922F00102426184F891
:1038A0003E3025632068C26822F01002C2602046C4
:1038B000FFF735FFF8BD05062BD50D0629D594F881
:1038C0003D002128F6D1A068B0F5805F01D12069C4
:1038D000B0B1206A411C2162216800784860E08C08
:1038E000401E0004000CE084E4D12068C16821F08F
:1038F0008001C1602068C16841F04001C160F8BD2D
:10390000206A0088C0F308005060206A801C206292
:10391000E5E74006F3D54806F1D5D168204621F009
:103920004001D16084F83D3000F0C8F8F8BD0000D7
:103930009147000870B5040004D094F83D000025BC
:1039400010B106E0012070BD84F83C50204600F024
:1039500023F8242084F83D002068C16821F4005138
:10396000C160204600F08CFF2068016921F490417D
:1039700001612068416921F02A0141612068C16824
:1039800041F40051C1602564202084F83D0084F892
:103990003E00002070BD000030B500681F4987B0B0
:1039A000884238D11E48016841F01001016000686A
:1039B00000F0100005901A481438016841F0010128
:1039C0000160016801F001010591016841F0010108
:1039D00001600068012100F0010005904FF40070C3
:1039E00000900220CDE901010724CDE903040D4D2B
:1039F00069462846FDF7C4FF2915009104946946DD
:103A00002846FDF7BDFF2520FEF71DFB03221146CA
:103A10002520FEF725FB07B030BD00000010014057
:103A2000443802400000024090F83E30202B0ED176
:103A300059B152B190F83C30012B08D0012380F8E5
:103A40003C300023036300F0A1BF01207047022037
:103A50007047000030B400681549884225D1154AE6
:103A60005088010416D41146440409784FF000032D
:103A700004D50A290DD140F4004014E00D2910D0DE
:103A8000C0F30D040C4D401C80B229555080C7284E
:103A900000D953800848012230BC0649C830FFF7DE
:103AA000C3BF40F480405080F4E730BC7047000052
:103AB0000010014010000020C00700207047FEE702
:103AC00070B5154C0168154A4FF04023A14201D151
:103AD000114600E01946CD68C16A8E1CC6620D8091
:103AE000418E491E4186418E002914D10168A142B0
:103AF00001D1114600E01946496821F0600100D06B
:103B00001A465160418D002905D14FF0010180F81E
:103B10004110FEF733F970BD00380040003400401A
:103B200070B5416A144C8A1C42620D8802681349C0
:103B30004FF04023A24201D10A4600E01A46D56068
:103B4000428D521E4285428D002A14D10268A24243
:103B500001D10A4600E01A46526822F0A00200D0C5
:103B600019464A60418E002905D14FF0010180F8C5
:103B70004110FEF703F970BD0038004000340040EA
:103B80007CB5016804468868009094F841000125DE
:103B9000042834D10098C00718D04868C0434006B4
:103BA00014D4C9682046E26A1180E16A891CE16286
:103BB000618E491E6186618E41B901684A6822F0B2
:103BC00060024A6080F84150FEF7FCF90098400618
:103BD00015D520684168C943890610D4416821F091
:103BE000600141602068C1688068019084F841509C
:103BF000606C40F0020060642046FEF7C0F894F864
:103C00004100032834D10098800719D521684868FD
:103C1000C043000614D4626A20461288CA60616AF2
:103C2000891C6162618D491E6185618D41B90168A0
:103C30004A6822F0A0024A6080F84150FEF7C3F9BA
:103C40000098000714D520684168C94389060FD43D
:103C5000416821F0A001416020688068009084F8EC
:103C60004150606C40F0040060642046FEF787F825
:103C70007CBDFEE7704770470A6842624A6882620C
:103C8000D1E902231A43D1E904310B43C16A1A4333
:103C900021F0F7011143C16200207047006800F075
:103CA0000300704708444069704770B50DF1100C6F
:103CB00011439CE870002343194329434268314370
:103CC00047F6FF639A430A434260002070BD10B577
:103CD000032101600220FDF74FFE002010BDD0F847
:103CE000800070470A688260D1E901231A43D1E954
:103CF00003310B43C1681A436FF30B011143C160D9
:103D0000002070470968C0F880100020704710B587
:103D100086B0044600913721019140210020CDE971
:103D200002100801049069462046FFF7DBFF41F2CC
:103D300088323721204600F0B5F906B010BD0000EA
:103D400010B50B4A86B0044611432920CDE9001076
:103D50004020029000200390500D049069462046B8
:103D6000FFF7C0FF204600F055FA06B010BD000076
:103D70000000108010B586B004460091102101911A
:103D800040210020CDE90210080104906946204638
:103D9000FFF7A8FF41F288321021204600F082F997
:103DA00006B010BD10B586B0044600910621019101
:103DB00040210020CDE90210080104906946204608
:103DC000FFF790FF41F288320621204600F06AF9A1
:103DD00006B010BD30B585B00025044600950195AC
:103DE0004FF480600295CDE9035069462046FFF705
:103DF00079FF0B484FF4FA510068B0FBF1F141F242
:103E000088304143491E02D24FF0004504E0606B08
:103E10000006F7D5C520A06305B0284630BD0000D8
:103E20000000002070B585B004464FF4D5700090B6
:103E300008204026CDE901060025C001CDE9035048
:103E400069462046FFF74EFF12484FF4FA510068CA
:103E5000B0FBF1F141F288304143491E02D24FF0EC
:103E6000004514E0606B10F0450FF6D00005F4D467
:103E7000606B400701D5042503E0606BC00702D0EA
:103E80000125A56303E0606B400600D5A66305B07D
:103E9000284670BD0000002010B586B00446009191
:103EA0001221019140210020CDE902100801049067
:103EB00069462046FFF716FF41F28832122120465C
:103EC00000F0F0F806B010BD10B586B004460091C1
:103ED0001121019140210020CDE902100801049038
:103EE00069462046FFF7FEFE41F288321121204646
:103EF00000F0D8F806B010BD10B586B00446072112
:103F000040200092CDE90110002003904FF4806022
:103F1000049069462046FFF7E5FE41F2883207210A
:103F2000204600F0BFF806B010BD10B586B00021E5
:103F300002220446C020CDE90201CDE90012500260
:103F4000049069462046FFF7CDFE204600F03AF97E
:103F500006B010BD10B586B004460091092101914C
:103F6000C0210020CDE902104FF480600490694622
:103F70002046FFF7B7FE204600F024F906B010BD3A
:103F800010B586B00021044640203322CDE902015D
:103F9000CDE900120001049069462046FFF7A2FE19
:103FA00041F288323321204600F07CF806B010BD83
:103FB00010B586B0044600910D21019140210020EA
:103FC000CDE902100801049069462046FFF78AFEF9
:103FD00041F288320D21204600F064F806B010BD91
:103FE00030B585B0054600230320CDE900304020E0
:103FF000CDE9020300010C46049069462846FFF70C
:1040000071FE22460321284600F026F905B030BD96
:1040100010B586B00021044640200C22CDE90201F3
:10402000CDE900120001049069462046FFF75AFED0
:10403000034A0C21204600F035F806B010BD000000
:1040400000E1F50510B586B00446009119210191F3
:1040500040210020CDE90210080104906946204665
:10406000FFF740FE41F288321921204600F01AF88D
:1040700006B010BD10B586B004460091182101911C
:1040800040210020CDE90210080104906946204635
:10409000FFF728FE41F288321821204600F002F88E
:1040A00006B010BD454B10B51B684FF4FA54B3FB76
:1040B000F4F353435B1E02D24FF0004010BD426B3D
:1040C00012F0450FF6D01205F4D4426B520703D517
:1040D00004218163084610BD426BD20702D0012142
:1040E000816305E0C52282630269D2B28A4201D0AF
:1040F000012010BD0021FFF7D5FD3149084201D153
:10410000002010BD002802DA4FF0007010BD410001
:1041100001D5402010BD810001D5802010BDC10017
:1041200002D54FF4807010BD010102D54FF400702C
:1041300010BD410102D54FF4806010BDC10102D510
:104140004FF4006010BD010202D54FF4805010BD45
:10415000410202D54FF4005010BD810202D54FF448
:10416000804010BDC10202D54FF4004010BD410394
:1041700002D54FF4003010BD810302D54FF48020EA
:1041800010BDC10302D54FF4002010BD010402D5BB
:104190004FF4801010BD410402D54FF4001010BD43
:1041A000810402D54FF4800010BD000702D54FF402
:1041B000000010BD4FF4803010BD00000000002052
:1041C00008E0FFFD12494FF4FA520968B1FBF2F220
:1041D00041F288314A43521E02D24FF000407047EC
:1041E000416B11F0450FF6D00905F4D4416B490736
:1041F00003D50421816308467047416BC90703D08A
:104200000121816308467047C52181630020704702
:10421000000000200F494FF4FA520968B1FBF2F296
:1042200041F288314A43521E02D24FF0004070479B
:10423000416B11F0450FF6D00905F4D4416B4907E5
:1042400003D50421816308467047C521816300209E
:10425000704700000000002030B5204B4FF4FA54A6
:104260001B68B3FBF4F441F288335C43641E02D252
:104270004FF0004030BD436B13F0450FF6D01B05E7
:10428000F4D4436B5B0703D504218163084630BD3A
:10429000436BDB0702D00121816303E00369DBB2DA
:1042A0008B4201D0012030BDC52181630021FFF781
:1042B000F9FC10F4604F04D0410406D54FF40050CF
:1042C00030BD000C1080002030BD000402D54FF43A
:1042D000805030BD4FF4803030BD00000000002021
:1042E0002DE9F04788B00E460446FDF747FC00254F
:1042F000074606950795A84608212068FFF73AFD6E
:1043000000282AD1B4F8500001042068FFF7FFFC10
:10431000002822D1401E4FF00809CDE900093020C5
:104320004FF0020ACDE9020A0120CDE90480694676
:104330002068FFF7A1FC2068FFF722FE00280CD1BF
:104340000DF118082068416B11F02A0F08D0416B5D
:10435000090719D5C0F83890082008B0BDE8F087E3
:10436000416B890205D5FFF7BAFC48F825006D1CA2
:1043700002E0416B8904EAD5FDF700FCC01B401C3C
:10438000E0D14FF00040E8E7416B890703D5C0F862
:1043900038A00220E1E7416B890603D52021816323
:1043A0000846DAE740F23A518163079800BA306074
:1043B000069800BA70600020CFE710B590B00446B0
:1043C0000120ADF838002068FFF768FC002854D0C1
:1043D000606C032842D02068FFF7A7FD00284AD16F
:1043E00000212068FFF75EFC606704212068FFF76A
:1043F00059FCA06708212068FFF754FCE0670C21F6
:104400002068FFF74FFCC4F88000606C032825D0BB
:104410000EA92068FFF7E4FD00282CD1606C03286A
:104420001CD0BDF83800206501042068FFF792FD1C
:10443000002820D100212068FFF734FC60660421A9
:104440002068FFF72FFCA06608212068FFF72AFCF0
:10445000E0660C212068FFF725FC20670421206816
:10446000FFF720FC000DE06403A92046FEF718FAD0
:1044700030B14FF0805010B010BD4FF08060FAE7BF
:10448000B4F85000002302042068FFF735FD00282F
:10449000F1D104F1100007C88DE8070094E80F007F
:1044A000FFF703FC0020E6E72DE9F84F002604465D
:1044B0000096374635460068FFF78CFC002827D168
:1044C0002068FFF7AFFC4FF0805B4FF001094FF61B
:1044D000FF7848B1A6642068FFF77CFC002817D15C
:1044E000A06C012802D01FE0C4F848900021206889
:1044F000FFF70DFC58B917E000212068FFF707FC13
:10450000002805D151462068FFF71AFC10B1584623
:10451000BDE8F88F00212068FFF7C4FB0746C50FF0
:104520000098401C009001E0DFF824A0009941456C
:1045300001D2002DE0D0414502D34FF08070E7E773
:10454000780002D5C4F8449000E066640020DFE7FC
:10455000000010C138B504461248134D4FF47A7369
:104560000068B0FBF5F0584300906068B0F5827FBA
:104570000DD10B46009200228021204600F016F853
:1045800070B1606D40F020006065032038BD009878
:1045900030B1401E009020688068C0430006F6D508
:1045A000002038BD0000002000366E012DE9F843E0
:1045B0001E46914688460446089DFDF7DFFA401BDB
:1045C000351AFDF7DBFA074625480068C0F3CB3003
:1045D000684338E0701C37D0FDF7D0FAC01BA84202
:1045E00003D215B1009860B32CE02068416821F037
:1045F000E00141606068B0F5827F0BD1A068B0F542
:10460000004F02D0B0F5806F04D12068016821F01E
:1046100040010160A06AB0F5005F09D1206801681F
:1046200021F4005101602068016841F400510160EB
:10463000012084F85100002084F850000320BDE8D8
:10464000F8830025401E00902068816838EA010048
:1046500004D000204845BDD10020F0E70120F9E753
:10466000000000207047FDF7AFBC00000248016861
:1046700041F470010160704788ED00E010B50A4C0C
:104680002068C068C043C00709D108480069804756
:1046900021680020486221686420C862E0602168C7
:1046A0006FF00100086110BDB01B0020D000002099
:1046B0000148FEF75EBF0000201B00200148FEF706
:1046C00058BF0000681B0020F0B50268254D264E3B
:1046D000264FDFF89CC0274B4FF0804EA84209D0F0
:1046E000704507D0B04205D0B84203D0604501D034
:1046F000984203D122F070044A682243A8421BD09A
:10470000704519D0B04217D0B84215D0604513D0CB
:10471000984211D0184CA0420ED0184CA0420BD099
:10472000174CA04208D0174CA04205D0164CA0420E
:1047300002D0164CA04203D122F44074CA6822432E
:104740004C6922F08002224302608A68C2620A68D1
:104750008262A84201D0984201D109690163012116
:104760004161F0BD0000014000040040000800402D
:10477000000C0040000401400040014000440140A2
:104780000048014000180040001C0040002000408C
:1047900010B5806B0021C185C184FEF7C1FF10BD3B
:1047A0000168CA6822F49072CA6001684A6922F0FE
:1047B00001024A61016B012904D10168CA6822F033
:1047C0001002CA60202180F83E100021016370476A
:1047D00010B5044690F83E00222801D0022010BDFA
:1047E000A0684FF48052904201D1216921B1A16AA1
:1047F00090421BD048B10AE02168A06A4968C1F321
:1048000008010180A06A801C08E0206970B120685E
:10481000406800F07F000870A06A401CA062E08D34
:10482000401E0004000CE08503D01CE020684068B6
:10483000F1E72068C16821F02001C1602068C168EB
:1048400021F48071C1602068416921F0010141615A
:10485000202084F83E00206B012806D02046FFF778
:10486000F9F800202063002010BD2068C16821F005
:104870001001C160A18D2046FEF751FFF1E7000055
:1048800070B5044600680169E26821F440511143A3
:104890000161A1682069E269014360691043014335
:1048A0002068C26849F20C639A430A43C2602068D8
:1048B0004169A26921F44071114341613149206885
:1048C000884202D03049884202D1FDF771FD01E0F3
:1048D000FDF75EFDE2690023192164253226B2F559
:1048E000004F626828D0A0FB0101930F9200FBF7F4
:1048F00010FD0146B0FBF5F06FF01802504301EBDC
:10490000800006EB0010B0FBF5F000F0F002B1FB08
:10491000F5F002EB0012B1FBF5F06FF0180358430D
:1049200001EB800006EB0010B0FBF5F000F00F008B
:1049300021681044886070BDA0FB010192185B41A2
:10494000FBF7E7FC0146B0FBF5F00201B1FBF5F027
:104950006FF01803584301EB800006EBC000B0FB7A
:10496000F5F000F0F80002EB4002B1FBF5F058431F
:1049700001EB800006EBC000B0FBF5F000F0070093
:10498000D6E70000001001400014014081628285DA
:10499000C28500210164222280F83E2080F83C106C
:1049A0000168CA6842F48072CA6001684A6942F0CC
:1049B00001024A610068C16841F02001C160002025
:1049C000704700000148FEF7ADBE000088080020D7
:1049D000FEE70907090E002804DB00F1E02080F85B
:1049E0000014704700F00F0000F1E02080F8141D63
:1049F000704730380A2801D20120704700207047E4
:104A000070472DE9F04705464868D718DDF8208043
:104A100016460C464FF01709B84204D3E068984296
:104A200001D3206830B92968C1F81490286801685A
:104A300028468847A069B04203D821690844B84293
:104A400023D294F8220030B92968472048612868A9
:104A500001682846884794F8210038B10122214690
:104A6000284603F05FFD002084F82100A069B042D1
:104A700001D2A66104E02069381A00D50020A061A7
:104A800000222146284603F04DFDE069B84223D2BA
:104A9000B0420AD2B8F1000F06D02968C1F81490CC
:104AA00028680168284688473046B8F1000F00D0D2
:104AB000E76194F82010E1B1A1684FEAC119A1693A
:104AC000451A7F1A06E02068494650F82500FCF791
:104AD00029F96D1CBD42F6D3B8F1000F02D00120B8
:104AE00084F82100A1692068711A00EB8100BDE8FB
:104AF000F087B8F1000FF2D12968C1F81490286846
:104B0000016828468847EDE72DE9F04705464868E3
:104B1000D718DDF8208016460C464FF01709B8422A
:104B200004D3E068984201D3206830B92968C1F8FD
:104B300014902868016828468847A069B04203D8C5
:104B400021690844B84223D294F8220030B9296878
:104B500047204861286801682846884794F8210062
:104B600038B101222146284603F018FD002084F8C0
:104B70002100A069B04201D2A66104E02069381A80
:104B800000D50020A06100222146284603F006FD42
:104B9000E069B84222D2B0420AD2B8F1000F06D082
:104BA0002968C1F81490286801682846884730466B
:104BB000B8F1000F00D0E76194F82010D9B1A169D5
:104BC000D4F80890451A7F1A06E02068494650F844
:104BD0002500FCF7A7F86D1CBD42F6D3B8F1000F15
:104BE00002D0012084F82100A1692068711A00EB2D
:104BF0008100BDE8F087B8F1000FF2D12968C1F853
:104C000014902868016828468847EDE72DE9F047A9
:104C10008A46814644681B49D001B1FBF0F51E4627
:104C20001746002D08DCD9F8000048214161D9F869
:104C30000000016848468847B54200DB3546B200AF
:104C400051464846256500F0EFF88046002414E000
:104C5000301BA84200D8054605FB07F0C2015146AB
:104C6000484600F067F8291E07D048F8240000EBFA
:104C7000C710491E04F10104F7D1B442E8D34046FD
:104C8000BDE8F087F0C99A3B2DE9F0410546D0F820
:104C9000AC61006D002447003F1D09E068683A469A
:104CA000012143682846984706EB8401641C486448
:104CB000A86DA042F2DCBDE8F0812DE9F047044682
:104CC000D0F810A1D0F88871406AC2006068012154
:104CD000036820469847F863616A002600EB81006C
:104CE0003864D4F8B85020E095F83400D8B1A96AF7
:104CF000E8684843D4F8101190FBF1F80AF1040079
:104D000008FB00F960684FEAC902012103682046E8
:104D10009847F96B00EB880041F82600396C00EBEE
:104D2000890041F826005835761C606AB042DBDC09
:104D3000BDE8F0872DE9F047064647681B48154651
:104D40008846824203D90321304612F081FC15F0D7
:104D5000070002D0C0F108000544B8F1020F09D3E2
:104D600031680F2048613168C1F8188030680168E7
:104D70003046884705F110018946304608F058F85A
:104D8000040003D10421304612F062FCF96C01EBFF
:104D90000900F86407EB8800C16BC4E90015002125
:104DA000A160C46304F11000BDE8F087F0C99A3B2C
:104DB0002DE9F047814644681A481746B0FBF7F5DD
:104DC0001E468A46002D08DCD9F8000048214161C2
:104DD000D9F80000016848468847B54200DB3546EF
:104DE000B20051464846256500F01EF88046002472
:104DF00012E0321BAA4200D92A4615467A43514690
:104E00004846FFF797FF2A0006D048F824003844A8
:104E1000521E04F10104F8D1B442EAD34046BDE881
:104E2000F0870000F0C99A3B2DE9F0478046D0F8A2
:104E30000490324815460C46824203D9012140466F
:104E400012F006FC15F0070002D0C0F1080005447E
:104E5000022C0BD3D8F800000F214161D8F80000D4
:104E60008461D8F8000001684046884709EB840A4D
:104E70000026DAF8340004E08168A94204D206462C
:104E800000680028F8D100E0E8B905F1100736B352
:104E90001B4850F8244019481030C01BA04200D2D3
:104EA00004463919404607F0C6FFD8B1D9F84C106E
:104EB0003A190A440021C9F84C20016041602919BF
:104EC0008160BEB13060416800F110020A4429449B
:104ED00041608168491B81601046BDE8F087084841
:104EE0000838D6E76408322CDBD20221404612F0A3
:104EF000AFFBD6E7CAF83400E5E70000F0C99A3BFB
:104F0000F4FE01082DE9F041D0F89C4107460D461A
:104F10004FF40046206926E06069401E60611FD59D
:104F2000D7F8800108B100200EE0384604F07AFF7F
:104F3000FF2809D1384604F075FFFF28FAD010B1D8
:104F4000C7F88001EFE7FF20E16840EA0120E06058
:104F500060690830606103D5401C606100D1266142
:104F6000206940002061B042D6DB2878174A00F063
:104F70007F0152F82110226901F0FF0C0912CFB213
:104F80000912521A226194F814E002FA0EF3D4F8CE
:104F90000CE09E4506DBAEEB0303E3608A42216131
:104FA0000CDB03E0B2420DDA8A4207DA00F080013E
:104FB00081EA0C01297080F0800003E000F080019C
:104FC00079402970C011BDE8F081000098F4010813
:104FD0000A480178491C01700178032901D9002190
:104FE000017007490A6F00781303064A52F820003F
:104FF00001D5C8677047C1F88000704704000020E1
:1050000000600240B007002010B54188104A49BA3C
:10501000518384798388C07964F31F4343EA006035
:10502000D061B0F5704F02D90020D0610BE0C3070A
:1050300001D0401CD061A1F5C840633805D0A1F56E
:10504000EE40623801D00B2010BD002010BD0000E2
:10505000A1C601202DE9F34F81B0002100916F4AD4
:1050600001680546914202D00120BDE8FE8F6C49DF
:1050700082688A4201D00220F7E750F80C1F694A83
:1050800091427CD1684B8168994201D00420ECE7C1
:1050900050F80C1F654B994201D00520E5E7644CA0
:1050A00050F8081F21600169616050F8041C014438
:1050B0000868904274D15F4B8868984277D15E4E01
:1050C000CF6801F10C00B74278D1DFF870E1DFF86A
:1050D00070818768DFF86CB1DFF86CA108F108090E
:1050E00077453AD1594FD0F80CC0BC4578D1D8F8A3
:1050F00000702762D9F80470676247680830384446
:105100005746D0F800C0BC4563D1D0F80CC0C4F8F5
:1051100008C00069E06048680831084401689142AD
:1051200003D000202061A08215E0816899423ED121
:10513000C26800F10C01B24240D18B685B454FD18F
:105140004968143008440168B94242D1C1682161FC
:105150004189A1820089208348E05F4546D1D8F883
:1051600004702762D9F800706762476801F1140083
:1051700038445746D0F800C0BC452AD100E00FE0C3
:10518000D0F80CC0C4F810C0B0F80AC0A4F814C01D
:10519000008920834868083108440168914203D09F
:1051A000032062E703E009E08168994201D006200C
:1051B0005BE7C26800F10C01B24201D0072054E75E
:1051C0008B6873450CD14968143008440168B942B2
:1051D00002D0082049E703E01C4982698A4201D0D5
:1051E0000A2042E7C168A1600069E06018A2284671
:1051F000029900F031F868B1216949B10544626A49
:105200002846029900F028F830B128448088E082CE
:1052100000982AE7092028E70B2026E7524946464E
:10522000415649204C4953546864726C61766968F0
:10523000A1C601207374726C7374726876696473AA
:1052400088F4010861756473737472664D4A50473F
:105250006D6F76690000000070B50023091F1CE027
:10526000C45C1578AC4217D1C41856786578B5423D
:1052700012D1A5789678B5420ED1E578D678B542A8
:105280000AD1A679A588E47966F31F4545EA046446
:10529000102C01D998B270BD5B1C8B42E0D300206A
:1052A00070BD000038B5104A0023146844F0200493
:1052B000146012680D4C02F0200200920C4AC2E900
:1052C0000230C2E900411046FEF7C6F80322012170
:1052D0003720FCF7C5FE3720FCF7B5FEBDE83840A7
:1052E0000348FEF705B900004038024000140040B2
:1052F000681B002070B50546D0F8A84140684FF4FF
:10530000806632460368012128469847A060686895
:1053100032460121036828469847E06068683246B3
:1053200001210368284698472061686832460121B8
:10533000036828469847606100206FF07F01730181
:10534000104AA5684A4302F50042121445F820208D
:105350004EF2D1224A43E56803EB8202121445F86B
:105360002020094A25694A4345F82020074A6569F3
:105370004A4302F5004245F82020401C491CFF2802
:10538000DEDD70BDD3CD02005D92FEFFCD4FFFFF8D
:1053900070B50546D0F8A44140684FF480663246A7
:1053A0000368012128469847206168683246012138
:1053B000036828469847606168683246012103689F
:1053C00028469847A061686832460121036828464C
:1053D0009847E06100206FF07F017301104A256952
:1053E0004A4302F50042121445F820204EF2D12221
:1053F0004A43656903EB8202121445F82020094AEA
:10540000A5694A4345F82020074AE5694A4302F561
:10541000004245F82020401C491CFF28DEDD70BDFD
:10542000D3CD02005D92FEFFCD4FFFFF10B5416866
:10543000D0F8A8414FF440620B6801219847002141
:10544000A06144F68B424A4340F8212049F246626B
:1054500001FB02F300EB8102C2F8003441F62F5346
:105460004B4303F50043491CC2F80038FF29E8DD2F
:1054700010BD000070B50546D0F8A84140684FF453
:10548000806632460368012128469847A060686814
:1054900032460121036828469847E0606868324632
:1054A0000121036828469847206168683246012137
:1054B000036828469847606100206FF07F01730100
:1054C000104AA5684A4302F50042121445F820200C
:1054D0004EF2D1224A43E56803EB4202121445F82A
:1054E0002020094A25694A4345F82020074A656972
:1054F0004A4302F5004245F82020401C491CFF2881
:10550000DEDD70BDE96601002E49FFFFE7A7FFFF62
:1055100070B50546D0F8A44140684FF48066324625
:1055200003680121284698472061686832460121B6
:10553000036828469847606168683246012103681D
:1055400028469847A06168683246012103682846CA
:105550009847E06100206FF07F017301104A2569D0
:105560004A4302F50042121445F820204EF2D1229F
:105570004A43656903EB4202121445F82020094AA8
:10558000A5694A4345F82020074AE5694A4302F5E0
:10559000004245F82020401C491CFF28DEDD70BD7C
:1055A000E96601002E49FFFFE7A7FFFF2DE9F0475D
:1055B0000746406B891E00EB1136C1F3C80501F0A8
:1055C00007014FF0010A0AFA01F098469146C4B269
:1055D0003146761C384611F0E9FC10B10120BDE8D7
:1055E000F08752464FF40073791991F83C0010EAA5
:1055F000040C01D04FF0010CC44501D10220EEE7AC
:10560000604081F83C00B9F10100FA708146E6D0B3
:10561000600010F0FF04E7D101246D1C9D42E3D32C
:105620000025D5E770B504460020E070401EA06359
:10563000204611F0BBFC08B1042070BD04F23A20F2
:1056400010F0DFFD4AF655260546B04206D10B2282
:105650002BA104F13C00FBF76BFA40B194F83C003D
:10566000EB2806D0E92804D0E82802D041E0012048
:1056700070BDB54207D1082224A104F18E00FBF7CA
:1056800057FA0028F4D004F1470010F0BAFD94F85E
:105690004910421E10422CD14FF40072904228D380
:1056A000904226D829B3481E014222D104F14A0073
:1056B00010F0A7FDE8B194F84C00401E012818D85E
:1056C00004F14D0010F09DFD98B104F14F0010F071
:1056D00098FD802806D204F15C0010F05CFDB0F566
:1056E000803F06D304F1520010F08BFD08B100207A
:1056F00070BDB54201D1022070BD032070BD000015
:10570000EB769045584641542020200046415433C2
:10571000322020200000000070B515460168046D9D
:10572000680A4A8940EAC350590A0023241DFAF73F
:10573000F0FD02CC21B1884204D3401A241DF8E7C1
:10574000002070BD2168084470BDC269891E921E88
:105750008A4201D800207047026B408900FB01207B
:10576000704700002DE9F05F8146884601F11A007C
:1057700010F047FD88BB98F80000012700F03F00BB
:10578000401E00EB8001DFF85CA001EBC0040025A7
:105790004FF6FF7B1AF8051001EB080010F031FD01
:1057A00006466FB1FF2C18D803F02EFF074639F8D4
:1057B0001400641C03F028FF87420ED1374601E035
:1057C0005E450AD16D1C0D2DE4D398F8000040060B
:1057D00006D52FB139F8140010B10020BDE8F09FB4
:1057E0000120FBE78CF101082DE9F04FD0F8A8412A
:1057F000D0F850E0A56931E0086810CB50F822B02D
:10580000486850F822A0886850F82280C86850F88C
:1058100022900020521C1FE01BF80060C6F1FF0C14
:105820001AF8006055F82CC0C6F1FF0718F80060A0
:1058300005EB8707C6F1FF0605EB8606D7F800746F
:10584000D6F8006867443E44360C04F8016B19F83A
:10585000006004F8016B401C7045DDD30998401EC0
:105860000990C9D5BDE8F08F2DE9F04F8A46D0F8F0
:10587000AC119E4693468E690024D0F85090876DF7
:1058800018E05AF824205BF824505FEA090310D08E
:105890000021084607E056F820C012F8018B401C92
:1058A0001CF808C06144B842F5DB05F8011B5B1E1B
:1058B000EED1641C7445E4DBBDE8F08F2DE9F04FB8
:1058C0008946D0F8AC1192469B4689690022D0F8EF
:1058D00050C0D1E901650F6818E059F822105AF854
:1058E00022305FEA0C0010D011F8014B401E11F875
:1058F000018B3C5D16F80880444411F8018B15F8C3
:105900000880444403F8014BEED1521C5A45E4DBB5
:10591000BDE8F08F2DE9F74F85B000230598994633
:105920001F46D0F8AC011E4680690490D1E90050B2
:10593000039088680290C8680190D1E904A00090A3
:1059400026E0029A20E00498910101EB4A0150F808
:1059500025004FF0040E0C18022051460EEBC50C2A
:1059600000EB820B0CE034F8020B40B10EEBC108E7
:105970000CFB00990BFB007708FB00660344491CF5
:1059800000988142EFDD521C01988242DBDD6D1CE4
:1059900003988542D5DD059909EB630090FBF3F090
:1059A000896E0A6807995054059907EB630090FBCC
:1059B000F3F0896E4A6807995054059906EB630025
:1059C00090FBF3F0896E8A680799505408B0BDE8DF
:1059D000F08F2DE9F04F85B0044600250DF1040A43
:1059E000D0F88C6113E004EB85000121D0F8200190
:1059F0000091626FC36840685A4306EB8000816C77
:105A00006068076A2046B8474AF825006D1CD4F83C
:105A10001C01A842E7DCB06938E075692EE006F1A8
:105A200020039B4600201DE004EB8001D1F820718B
:105A30000021D7F8388008FB05F80FE05AF820C09D
:105A400009EB01025CF82220D7F838C002EBC8123B
:105A500004C38032BCF1010CFAD1491CFA6B8A42B2
:105A6000ECDC401CD4F81C118142DDDCD4F89C0134
:105A70005946426820469047D0B16D1CD4F8300199
:105A8000A842CCD80020706109F10100F16981467B
:105A90004945C2DC606F401C6067D4F8141188422D
:105AA0000AD2204613F097FB032005B0BDE8F08F23
:105AB000C6E905590020F8E7D4F89401C1682046EA
:105AC00088470420F1E72DE9F041D0F894510446CD
:105AD000687C10B10220BDE8F08102264FF0240856
